{
  "_format": "hh-sol-artifact-1",
  "contractName": "BuyMyRoom",
  "sourceName": "contracts/BuyMyRoom.sol",
  "abi": [
    {
      "inputs": [],
      "stateMutability": "nonpayable",
      "type": "constructor"
    },
    {
      "inputs": [
        {
          "internalType": "address",
          "name": "sender",
          "type": "address"
        },
        {
          "internalType": "uint256",
          "name": "tokenId",
          "type": "uint256"
        },
        {
          "internalType": "address",
          "name": "owner",
          "type": "address"
        }
      ],
      "name": "ERC721IncorrectOwner",
      "type": "error"
    },
    {
      "inputs": [
        {
          "internalType": "address",
          "name": "operator",
          "type": "address"
        },
        {
          "internalType": "uint256",
          "name": "tokenId",
          "type": "uint256"
        }
      ],
      "name": "ERC721InsufficientApproval",
      "type": "error"
    },
    {
      "inputs": [
        {
          "internalType": "address",
          "name": "approver",
          "type": "address"
        }
      ],
      "name": "ERC721InvalidApprover",
      "type": "error"
    },
    {
      "inputs": [
        {
          "internalType": "address",
          "name": "operator",
          "type": "address"
        }
      ],
      "name": "ERC721InvalidOperator",
      "type": "error"
    },
    {
      "inputs": [
        {
          "internalType": "address",
          "name": "owner",
          "type": "address"
        }
      ],
      "name": "ERC721InvalidOwner",
      "type": "error"
    },
    {
      "inputs": [
        {
          "internalType": "address",
          "name": "receiver",
          "type": "address"
        }
      ],
      "name": "ERC721InvalidReceiver",
      "type": "error"
    },
    {
      "inputs": [
        {
          "internalType": "address",
          "name": "sender",
          "type": "address"
        }
      ],
      "name": "ERC721InvalidSender",
      "type": "error"
    },
    {
      "inputs": [
        {
          "internalType": "uint256",
          "name": "tokenId",
          "type": "uint256"
        }
      ],
      "name": "ERC721NonexistentToken",
      "type": "error"
    },
    {
      "anonymous": false,
      "inputs": [
        {
          "indexed": true,
          "internalType": "address",
          "name": "owner",
          "type": "address"
        },
        {
          "indexed": true,
          "internalType": "address",
          "name": "approved",
          "type": "address"
        },
        {
          "indexed": true,
          "internalType": "uint256",
          "name": "tokenId",
          "type": "uint256"
        }
      ],
      "name": "Approval",
      "type": "event"
    },
    {
      "anonymous": false,
      "inputs": [
        {
          "indexed": true,
          "internalType": "address",
          "name": "owner",
          "type": "address"
        },
        {
          "indexed": true,
          "internalType": "address",
          "name": "operator",
          "type": "address"
        },
        {
          "indexed": false,
          "internalType": "bool",
          "name": "approved",
          "type": "bool"
        }
      ],
      "name": "ApprovalForAll",
      "type": "event"
    },
    {
      "anonymous": false,
      "inputs": [
        {
          "indexed": false,
          "internalType": "uint256",
          "name": "tokenId",
          "type": "uint256"
        },
        {
          "indexed": false,
          "internalType": "uint256",
          "name": "price",
          "type": "uint256"
        },
        {
          "indexed": false,
          "internalType": "address",
          "name": "owner",
          "type": "address"
        }
      ],
      "name": "HouseListed",
      "type": "event"
    },
    {
      "anonymous": false,
      "inputs": [
        {
          "indexed": false,
          "internalType": "uint256",
          "name": "tokenId",
          "type": "uint256"
        },
        {
          "indexed": false,
          "internalType": "uint256",
          "name": "price",
          "type": "uint256"
        },
        {
          "indexed": false,
          "internalType": "address",
          "name": "newOwner",
          "type": "address"
        }
      ],
      "name": "HouseSold",
      "type": "event"
    },
    {
      "anonymous": false,
      "inputs": [
        {
          "indexed": true,
          "internalType": "address",
          "name": "from",
          "type": "address"
        },
        {
          "indexed": true,
          "internalType": "address",
          "name": "to",
          "type": "address"
        },
        {
          "indexed": true,
          "internalType": "uint256",
          "name": "tokenId",
          "type": "uint256"
        }
      ],
      "name": "Transfer",
      "type": "event"
    },
    {
      "inputs": [
        {
          "internalType": "address",
          "name": "to",
          "type": "address"
        },
        {
          "internalType": "uint256",
          "name": "tokenId",
          "type": "uint256"
        }
      ],
      "name": "approve",
      "outputs": [],
      "stateMutability": "nonpayable",
      "type": "function"
    },
    {
      "inputs": [
        {
          "internalType": "address",
          "name": "owner",
          "type": "address"
        }
      ],
      "name": "balanceOf",
      "outputs": [
        {
          "internalType": "uint256",
          "name": "",
          "type": "uint256"
        }
      ],
      "stateMutability": "view",
      "type": "function"
    },
    {
      "inputs": [
        {
          "internalType": "uint256",
          "name": "tokenId",
          "type": "uint256"
        }
      ],
      "name": "buyHouse",
      "outputs": [],
      "stateMutability": "nonpayable",
      "type": "function"
    },
    {
      "inputs": [],
      "name": "buyTokens",
      "outputs": [],
      "stateMutability": "payable",
      "type": "function"
    },
    {
      "inputs": [],
      "name": "cToken",
      "outputs": [
        {
          "internalType": "contract ctERC20",
          "name": "",
          "type": "address"
        }
      ],
      "stateMutability": "view",
      "type": "function"
    },
    {
      "inputs": [
        {
          "internalType": "uint256",
          "name": "price",
          "type": "uint256"
        },
        {
          "internalType": "uint256",
          "name": "listedTimestamp",
          "type": "uint256"
        }
      ],
      "name": "calculateFee",
      "outputs": [
        {
          "internalType": "uint256",
          "name": "",
          "type": "uint256"
        }
      ],
      "stateMutability": "view",
      "type": "function"
    },
    {
      "inputs": [],
      "name": "contractOwner",
      "outputs": [
        {
          "internalType": "address",
          "name": "",
          "type": "address"
        }
      ],
      "stateMutability": "view",
      "type": "function"
    },
    {
      "inputs": [],
      "name": "feePct",
      "outputs": [
        {
          "internalType": "uint256",
          "name": "",
          "type": "uint256"
        }
      ],
      "stateMutability": "view",
      "type": "function"
    },
    {
      "inputs": [
        {
          "internalType": "uint256",
          "name": "tokenId",
          "type": "uint256"
        }
      ],
      "name": "getApproved",
      "outputs": [
        {
          "internalType": "address",
          "name": "",
          "type": "address"
        }
      ],
      "stateMutability": "view",
      "type": "function"
    },
    {
      "inputs": [],
      "name": "getBalance",
      "outputs": [
        {
          "internalType": "uint256",
          "name": "",
          "type": "uint256"
        }
      ],
      "stateMutability": "view",
      "type": "function"
    },
    {
      "inputs": [
        {
          "internalType": "uint256",
          "name": "tokenId",
          "type": "uint256"
        }
      ],
      "name": "getHouseInfo",
      "outputs": [
        {
          "components": [
            {
              "internalType": "uint256",
              "name": "ID",
              "type": "uint256"
            },
            {
              "internalType": "address",
              "name": "owner",
              "type": "address"
            },
            {
              "internalType": "uint256",
              "name": "listedTimestamp",
              "type": "uint256"
            },
            {
              "internalType": "bool",
              "name": "isForSale",
              "type": "bool"
            },
            {
              "internalType": "uint256",
              "name": "price",
              "type": "uint256"
            }
          ],
          "internalType": "struct BuyMyRoom.House",
          "name": "",
          "type": "tuple"
        }
      ],
      "stateMutability": "view",
      "type": "function"
    },
    {
      "inputs": [
        {
          "internalType": "uint256",
          "name": "tokenId",
          "type": "uint256"
        }
      ],
      "name": "getHouseOwner",
      "outputs": [
        {
          "internalType": "address",
          "name": "",
          "type": "address"
        }
      ],
      "stateMutability": "view",
      "type": "function"
    },
    {
      "inputs": [
        {
          "internalType": "uint256",
          "name": "tokenId",
          "type": "uint256"
        }
      ],
      "name": "getHousePrice",
      "outputs": [
        {
          "internalType": "uint256",
          "name": "",
          "type": "uint256"
        }
      ],
      "stateMutability": "view",
      "type": "function"
    },
    {
      "inputs": [
        {
          "internalType": "address",
          "name": "user",
          "type": "address"
        }
      ],
      "name": "getOwnInfo",
      "outputs": [
        {
          "components": [
            {
              "internalType": "uint256",
              "name": "ID",
              "type": "uint256"
            },
            {
              "internalType": "address",
              "name": "owner",
              "type": "address"
            },
            {
              "internalType": "uint256",
              "name": "listedTimestamp",
              "type": "uint256"
            },
            {
              "internalType": "bool",
              "name": "isForSale",
              "type": "bool"
            },
            {
              "internalType": "uint256",
              "name": "price",
              "type": "uint256"
            }
          ],
          "internalType": "struct BuyMyRoom.House[]",
          "name": "",
          "type": "tuple[]"
        }
      ],
      "stateMutability": "view",
      "type": "function"
    },
    {
      "inputs": [],
      "name": "getSaleHouse",
      "outputs": [
        {
          "components": [
            {
              "internalType": "uint256",
              "name": "ID",
              "type": "uint256"
            },
            {
              "internalType": "address",
              "name": "owner",
              "type": "address"
            },
            {
              "internalType": "uint256",
              "name": "listedTimestamp",
              "type": "uint256"
            },
            {
              "internalType": "bool",
              "name": "isForSale",
              "type": "bool"
            },
            {
              "internalType": "uint256",
              "name": "price",
              "type": "uint256"
            }
          ],
          "internalType": "struct BuyMyRoom.House[]",
          "name": "",
          "type": "tuple[]"
        }
      ],
      "stateMutability": "view",
      "type": "function"
    },
    {
      "inputs": [
        {
          "internalType": "address",
          "name": "",
          "type": "address"
        }
      ],
      "name": "getfree",
      "outputs": [
        {
          "internalType": "bool",
          "name": "",
          "type": "bool"
        }
      ],
      "stateMutability": "view",
      "type": "function"
    },
    {
      "inputs": [],
      "name": "getfreeHouses",
      "outputs": [],
      "stateMutability": "nonpayable",
      "type": "function"
    },
    {
      "inputs": [],
      "name": "helloworld",
      "outputs": [
        {
          "internalType": "string",
          "name": "",
          "type": "string"
        }
      ],
      "stateMutability": "pure",
      "type": "function"
    },
    {
      "inputs": [
        {
          "internalType": "uint256",
          "name": "",
          "type": "uint256"
        }
      ],
      "name": "houses",
      "outputs": [
        {
          "internalType": "uint256",
          "name": "ID",
          "type": "uint256"
        },
        {
          "internalType": "address",
          "name": "owner",
          "type": "address"
        },
        {
          "internalType": "uint256",
          "name": "listedTimestamp",
          "type": "uint256"
        },
        {
          "internalType": "bool",
          "name": "isForSale",
          "type": "bool"
        },
        {
          "internalType": "uint256",
          "name": "price",
          "type": "uint256"
        }
      ],
      "stateMutability": "view",
      "type": "function"
    },
    {
      "inputs": [
        {
          "internalType": "address",
          "name": "owner",
          "type": "address"
        },
        {
          "internalType": "address",
          "name": "operator",
          "type": "address"
        }
      ],
      "name": "isApprovedForAll",
      "outputs": [
        {
          "internalType": "bool",
          "name": "",
          "type": "bool"
        }
      ],
      "stateMutability": "view",
      "type": "function"
    },
    {
      "inputs": [
        {
          "internalType": "uint256",
          "name": "tokenId",
          "type": "uint256"
        },
        {
          "internalType": "uint256",
          "name": "price",
          "type": "uint256"
        }
      ],
      "name": "listHouse",
      "outputs": [],
      "stateMutability": "nonpayable",
      "type": "function"
    },
    {
      "inputs": [],
      "name": "name",
      "outputs": [
        {
          "internalType": "string",
          "name": "",
          "type": "string"
        }
      ],
      "stateMutability": "view",
      "type": "function"
    },
    {
      "inputs": [
        {
          "internalType": "uint256",
          "name": "tokenId",
          "type": "uint256"
        }
      ],
      "name": "ownerOf",
      "outputs": [
        {
          "internalType": "address",
          "name": "",
          "type": "address"
        }
      ],
      "stateMutability": "view",
      "type": "function"
    },
    {
      "inputs": [
        {
          "internalType": "address",
          "name": "from",
          "type": "address"
        },
        {
          "internalType": "address",
          "name": "to",
          "type": "address"
        },
        {
          "internalType": "uint256",
          "name": "tokenId",
          "type": "uint256"
        }
      ],
      "name": "safeTransferFrom",
      "outputs": [],
      "stateMutability": "nonpayable",
      "type": "function"
    },
    {
      "inputs": [
        {
          "internalType": "address",
          "name": "from",
          "type": "address"
        },
        {
          "internalType": "address",
          "name": "to",
          "type": "address"
        },
        {
          "internalType": "uint256",
          "name": "tokenId",
          "type": "uint256"
        },
        {
          "internalType": "bytes",
          "name": "data",
          "type": "bytes"
        }
      ],
      "name": "safeTransferFrom",
      "outputs": [],
      "stateMutability": "nonpayable",
      "type": "function"
    },
    {
      "inputs": [
        {
          "internalType": "address",
          "name": "operator",
          "type": "address"
        },
        {
          "internalType": "bool",
          "name": "approved",
          "type": "bool"
        }
      ],
      "name": "setApprovalForAll",
      "outputs": [],
      "stateMutability": "nonpayable",
      "type": "function"
    },
    {
      "inputs": [
        {
          "internalType": "bytes4",
          "name": "interfaceId",
          "type": "bytes4"
        }
      ],
      "name": "supportsInterface",
      "outputs": [
        {
          "internalType": "bool",
          "name": "",
          "type": "bool"
        }
      ],
      "stateMutability": "view",
      "type": "function"
    },
    {
      "inputs": [],
      "name": "symbol",
      "outputs": [
        {
          "internalType": "string",
          "name": "",
          "type": "string"
        }
      ],
      "stateMutability": "view",
      "type": "function"
    },
    {
      "inputs": [
        {
          "internalType": "uint256",
          "name": "tokenId",
          "type": "uint256"
        }
      ],
      "name": "tokenURI",
      "outputs": [
        {
          "internalType": "string",
          "name": "",
          "type": "string"
        }
      ],
      "stateMutability": "view",
      "type": "function"
    },
    {
      "inputs": [],
      "name": "total",
      "outputs": [
        {
          "internalType": "uint256",
          "name": "",
          "type": "uint256"
        }
      ],
      "stateMutability": "view",
      "type": "function"
    },
    {
      "inputs": [
        {
          "internalType": "address",
          "name": "from",
          "type": "address"
        },
        {
          "internalType": "address",
          "name": "to",
          "type": "address"
        },
        {
          "internalType": "uint256",
          "name": "tokenId",
          "type": "uint256"
        }
      ],
      "name": "transferFrom",
      "outputs": [],
      "stateMutability": "nonpayable",
      "type": "function"
    }
  ],
  "bytecode": "0x60806040523480156200001157600080fd5b506040518060400160405280600981526020017f4275794d79526f6f6d00000000000000000000000000000000000000000000008152506040518060400160405280600481526020017f484e46540000000000000000000000000000000000000000000000000000000081525081600090816200008f9190620003fa565b508060019081620000a19190620003fa565b50505033600860006101000a81548173ffffffffffffffffffffffffffffffffffffffff021916908373ffffffffffffffffffffffffffffffffffffffff16021790555060006009819055506002600a81905550604051620001039062000172565b6200010e9062000592565b604051809103906000f0801580156200012b573d6000803e3d6000fd5b50600b60006101000a81548173ffffffffffffffffffffffffffffffffffffffff021916908373ffffffffffffffffffffffffffffffffffffffff160217905550620005c9565b611638806200415a83390190565b600081519050919050565b7f4e487b7100000000000000000000000000000000000000000000000000000000600052604160045260246000fd5b7f4e487b7100000000000000000000000000000000000000000000000000000000600052602260045260246000fd5b600060028204905060018216806200020257607f821691505b602082108103620002185762000217620001ba565b5b50919050565b60008190508160005260206000209050919050565b60006020601f8301049050919050565b600082821b905092915050565b600060088302620002827fffffffffffffffffffffffffffffffffffffffffffffffffffffffffffffffff8262000243565b6200028e868362000243565b95508019841693508086168417925050509392505050565b6000819050919050565b6000819050919050565b6000620002db620002d5620002cf84620002a6565b620002b0565b620002a6565b9050919050565b6000819050919050565b620002f783620002ba565b6200030f6200030682620002e2565b84845462000250565b825550505050565b600090565b6200032662000317565b62000333818484620002ec565b505050565b5b818110156200035b576200034f6000826200031c565b60018101905062000339565b5050565b601f821115620003aa5762000374816200021e565b6200037f8462000233565b810160208510156200038f578190505b620003a76200039e8562000233565b83018262000338565b50505b505050565b600082821c905092915050565b6000620003cf60001984600802620003af565b1980831691505092915050565b6000620003ea8383620003bc565b9150826002028217905092915050565b620004058262000180565b67ffffffffffffffff8111156200042157620004206200018b565b5b6200042d8254620001e9565b6200043a8282856200035f565b600060209050601f8311600181146200047257600084156200045d578287015190505b620004698582620003dc565b865550620004d9565b601f19841662000482866200021e565b60005b82811015620004ac5784890151825560018201915060208501945060208101905062000485565b86831015620004cc5784890151620004c8601f891682620003bc565b8355505b6001600288020188555050505b505050505050565b600082825260208201905092915050565b7f456e616d65000000000000000000000000000000000000000000000000000000600082015250565b60006200052a600583620004e1565b91506200053782620004f2565b602082019050919050565b7f4573796d626f6c00000000000000000000000000000000000000000000000000600082015250565b60006200057a600783620004e1565b9150620005878262000542565b602082019050919050565b60006040820190508181036000830152620005ad816200051b565b90508181036020830152620005c2816200056b565b9050919050565b613b8180620005d96000396000f3fe6080604052600436106101d85760003560e01c806370a0823111610102578063b90207a911610095578063d51ba0c611610064578063d51ba0c6146106dd578063e7e95ada1461071a578063e985e9c514610757578063eddc426914610794576101d8565b8063b90207a914610654578063c87b56dd1461066b578063ce606ee0146106a8578063d0febe4c146106d3576101d8565b8063a22cb465116100d1578063a22cb46514610584578063ad50f56d146105ad578063aeda852f146105ea578063b88d4fde1461062b576101d8565b806370a08231146104c857806395d89b411461050557806399b2317814610530578063a02cf93714610559576101d8565b806327d6e3b71161017a578063415a0eba11610149578063415a0eba146103fa57806342842e0e146104375780636352211e1461046057806369e527da1461049d576101d8565b806327d6e3b71461032a5780632ddbd13a146103675780632f2f48591461039257806334e73122146103bd576101d8565b8063095ea7b3116101b6578063095ea7b31461028257806312065fe0146102ab57806316623a63146102d657806323b872dd14610301576101d8565b806301ffc9a7146101dd57806306fdde031461021a578063081812fc14610245575b600080fd5b3480156101e957600080fd5b5061020460048036038101906101ff9190612c7a565b6107bd565b6040516102119190612cc2565b60405180910390f35b34801561022657600080fd5b5061022f61089f565b60405161023c9190612d6d565b60405180910390f35b34801561025157600080fd5b5061026c60048036038101906102679190612dc5565b610931565b6040516102799190612e33565b60405180910390f35b34801561028e57600080fd5b506102a960048036038101906102a49190612e7a565b61094d565b005b3480156102b757600080fd5b506102c0610963565b6040516102cd9190612ec9565b60405180910390f35b3480156102e257600080fd5b506102eb610a06565b6040516102f89190613028565b60405180910390f35b34801561030d57600080fd5b506103286004803603810190610323919061304a565b610bee565b005b34801561033657600080fd5b50610351600480360381019061034c919061309d565b610cf0565b60405161035e9190613028565b60405180910390f35b34801561037357600080fd5b5061037c610f5a565b6040516103899190612ec9565b60405180910390f35b34801561039e57600080fd5b506103a7610f60565b6040516103b49190612d6d565b60405180910390f35b3480156103c957600080fd5b506103e460048036038101906103df91906130ca565b610f9d565b6040516103f19190612ec9565b60405180910390f35b34801561040657600080fd5b50610421600480360381019061041c9190612dc5565b610fe9565b60405161042e9190612ec9565b60405180910390f35b34801561044357600080fd5b5061045e6004803603810190610459919061304a565b61101c565b005b34801561046c57600080fd5b5061048760048036038101906104829190612dc5565b61103c565b6040516104949190612e33565b60405180910390f35b3480156104a957600080fd5b506104b261104e565b6040516104bf9190613169565b60405180910390f35b3480156104d457600080fd5b506104ef60048036038101906104ea919061309d565b611074565b6040516104fc9190612ec9565b60405180910390f35b34801561051157600080fd5b5061051a61112e565b6040516105279190612d6d565b60405180910390f35b34801561053c57600080fd5b50610557600480360381019061055291906130ca565b6111c0565b005b34801561056557600080fd5b5061056e6112c8565b60405161057b9190612ec9565b60405180910390f35b34801561059057600080fd5b506105ab60048036038101906105a691906131b0565b6112ce565b005b3480156105b957600080fd5b506105d460048036038101906105cf9190612dc5565b6112e4565b6040516105e19190613258565b60405180910390f35b3480156105f657600080fd5b50610611600480360381019061060c9190612dc5565b6113a0565b604051610622959493929190613273565b60405180910390f35b34801561063757600080fd5b50610652600480360381019061064d91906133fb565b611403565b005b34801561066057600080fd5b50610669611420565b005b34801561067757600080fd5b50610692600480360381019061068d9190612dc5565b61162e565b60405161069f9190612d6d565b60405180910390f35b3480156106b457600080fd5b506106bd611697565b6040516106ca9190612e33565b60405180910390f35b6106db6116bd565b005b3480156106e957600080fd5b5061070460048036038101906106ff919061309d565b611797565b6040516107119190612cc2565b60405180910390f35b34801561072657600080fd5b50610741600480360381019061073c9190612dc5565b6117b7565b60405161074e9190612e33565b60405180910390f35b34801561076357600080fd5b5061077e6004803603810190610779919061347e565b6117f7565b60405161078b9190612cc2565b60405180910390f35b3480156107a057600080fd5b506107bb60048036038101906107b69190612dc5565b61188b565b005b60007f80ac58cd000000000000000000000000000000000000000000000000000000007bffffffffffffffffffffffffffffffffffffffffffffffffffffffff1916827bffffffffffffffffffffffffffffffffffffffffffffffffffffffff1916148061088857507f5b5e139f000000000000000000000000000000000000000000000000000000007bffffffffffffffffffffffffffffffffffffffffffffffffffffffff1916827bffffffffffffffffffffffffffffffffffffffffffffffffffffffff1916145b80610898575061089782611d19565b5b9050919050565b6060600080546108ae906134ed565b80601f01602080910402602001604051908101604052809291908181526020018280546108da906134ed565b80156109275780601f106108fc57610100808354040283529160200191610927565b820191906000526020600020905b81548152906001019060200180831161090a57829003601f168201915b5050505050905090565b600061093c82611d83565b5061094682611e0b565b9050919050565b61095f828261095a611e48565b611e50565b5050565b6000600b60009054906101000a900473ffffffffffffffffffffffffffffffffffffffff1673ffffffffffffffffffffffffffffffffffffffff166370a08231336040518263ffffffff1660e01b81526004016109c09190612e33565b602060405180830381865afa1580156109dd573d6000803e3d6000fd5b505050506040513d601f19601f82011682018060405250810190610a019190613533565b905090565b6060600080600190505b6009548111610a64576006600082815260200190815260200160002060030160009054906101000a900460ff1615610a51578180610a4d9061358f565b9250505b8080610a5c9061358f565b915050610a10565b5060008167ffffffffffffffff811115610a8157610a806132d0565b5b604051908082528060200260200182016040528015610aba57816020015b610aa7612bc7565b815260200190600190039081610a9f5790505b509050600080600190505b6009548111610be4576006600082815260200190815260200160002060030160009054906101000a900460ff1615610bd157600660008281526020019081526020016000206040518060a0016040529081600082015481526020016001820160009054906101000a900473ffffffffffffffffffffffffffffffffffffffff1673ffffffffffffffffffffffffffffffffffffffff1673ffffffffffffffffffffffffffffffffffffffff168152602001600282015481526020016003820160009054906101000a900460ff16151515158152602001600482015481525050838381518110610bb757610bb66135d7565b5b60200260200101819052508180610bcd9061358f565b9250505b8080610bdc9061358f565b915050610ac5565b5081935050505090565b600073ffffffffffffffffffffffffffffffffffffffff168273ffffffffffffffffffffffffffffffffffffffff1603610c605760006040517f64a0ae92000000000000000000000000000000000000000000000000000000008152600401610c579190612e33565b60405180910390fd5b6000610c748383610c6f611e48565b611e62565b90508373ffffffffffffffffffffffffffffffffffffffff168173ffffffffffffffffffffffffffffffffffffffff1614610cea578382826040517f64283d7b000000000000000000000000000000000000000000000000000000008152600401610ce193929190613606565b60405180910390fd5b50505050565b6060600080600190505b6009548111610d8e578373ffffffffffffffffffffffffffffffffffffffff166006600083815260200190815260200160002060010160009054906101000a900473ffffffffffffffffffffffffffffffffffffffff1673ffffffffffffffffffffffffffffffffffffffff1603610d7b578180610d779061358f565b9250505b8080610d869061358f565b915050610cfa565b5060008167ffffffffffffffff811115610dab57610daa6132d0565b5b604051908082528060200260200182016040528015610de457816020015b610dd1612bc7565b815260200190600190039081610dc95790505b509050600080600190505b6009548111610f4e578573ffffffffffffffffffffffffffffffffffffffff166006600083815260200190815260200160002060010160009054906101000a900473ffffffffffffffffffffffffffffffffffffffff1673ffffffffffffffffffffffffffffffffffffffff1603610f3b57600660008281526020019081526020016000206040518060a0016040529081600082015481526020016001820160009054906101000a900473ffffffffffffffffffffffffffffffffffffffff1673ffffffffffffffffffffffffffffffffffffffff1673ffffffffffffffffffffffffffffffffffffffff168152602001600282015481526020016003820160009054906101000a900460ff16151515158152602001600482015481525050838381518110610f2157610f206135d7565b5b60200260200101819052508180610f379061358f565b9250505b8080610f469061358f565b915050610def565b50819350505050919050565b60095481565b60606040518060400160405280600b81526020017f68656c6c6f20776f726c64000000000000000000000000000000000000000000815250905090565b600080610e108342610faf919061363d565b610fb991906136a0565b9050606484600a5483610fcc91906136d1565b610fd691906136d1565b610fe091906136a0565b91505092915050565b6000670de0b6b3a7640000600660008481526020019081526020016000206004015461101591906136a0565b9050919050565b61103783838360405180602001604052806000815250611403565b505050565b600061104782611d83565b9050919050565b600b60009054906101000a900473ffffffffffffffffffffffffffffffffffffffff1681565b60008073ffffffffffffffffffffffffffffffffffffffff168273ffffffffffffffffffffffffffffffffffffffff16036110e75760006040517f89c62b640000000000000000000000000000000000000000000000000000000081526004016110de9190612e33565b60405180910390fd5b600360008373ffffffffffffffffffffffffffffffffffffffff1673ffffffffffffffffffffffffffffffffffffffff168152602001908152602001600020549050919050565b60606001805461113d906134ed565b80601f0160208091040260200160405190810160405280929190818152602001828054611169906134ed565b80156111b65780601f1061118b576101008083540402835291602001916111b6565b820191906000526020600020905b81548152906001019060200180831161119957829003601f168201915b5050505050905090565b6006600083815260200190815260200160002060030160009054906101000a900460ff1615611224576040517f08c379a000000000000000000000000000000000000000000000000000000000815260040161121b9061375f565b60405180910390fd5b60016006600084815260200190815260200160002060030160006101000a81548160ff0219169083151502179055508060066000848152602001908152602001600020600401819055504260066000848152602001908152602001600020600201819055507f60b3e540896cf4a419e7b7274a1f1282223f5d92ca6f0152cf820fe457fb48438282336040516112bc9392919061377f565b60405180910390a15050565b600a5481565b6112e06112d9611e48565b838361207c565b5050565b6112ec612bc7565b600660008381526020019081526020016000206040518060a0016040529081600082015481526020016001820160009054906101000a900473ffffffffffffffffffffffffffffffffffffffff1673ffffffffffffffffffffffffffffffffffffffff1673ffffffffffffffffffffffffffffffffffffffff168152602001600282015481526020016003820160009054906101000a900460ff161515151581526020016004820154815250509050919050565b60066020528060005260406000206000915090508060000154908060010160009054906101000a900473ffffffffffffffffffffffffffffffffffffffff16908060020154908060030160009054906101000a900460ff16908060040154905085565b61140e848484610bee565b61141a848484846121eb565b50505050565b600760003373ffffffffffffffffffffffffffffffffffffffff1673ffffffffffffffffffffffffffffffffffffffff16815260200190815260200160002060009054906101000a900460ff16156114ad576040517f08c379a00000000000000000000000000000000000000000000000000000000081526004016114a490613802565b60405180910390fd5b6000600190505b600381116115d357600960008154809291906114cf9061358f565b91905055506114e0336009546123a2565b6040518060a0016040528060095481526020013373ffffffffffffffffffffffffffffffffffffffff16815260200142815260200160001515815260200160008152506006600060095481526020019081526020016000206000820151816000015560208201518160010160006101000a81548173ffffffffffffffffffffffffffffffffffffffff021916908373ffffffffffffffffffffffffffffffffffffffff1602179055506040820151816002015560608201518160030160006101000a81548160ff0219169083151502179055506080820151816004015590505080806115cb9061358f565b9150506114b4565b506001600760003373ffffffffffffffffffffffffffffffffffffffff1673ffffffffffffffffffffffffffffffffffffffff16815260200190815260200160002060006101000a81548160ff021916908315150217905550565b606061163982611d83565b50600061164461249b565b90506000815111611664576040518060200160405280600081525061168f565b8061166e846124b2565b60405160200161167f92919061385e565b6040516020818303038152906040525b915050919050565b600860009054906101000a900473ffffffffffffffffffffffffffffffffffffffff1681565b60003411611700576040517f08c379a00000000000000000000000000000000000000000000000000000000081526004016116f7906138ce565b60405180910390fd5b6000349050600b60009054906101000a900473ffffffffffffffffffffffffffffffffffffffff1673ffffffffffffffffffffffffffffffffffffffff166340c10f1933836040518363ffffffff1660e01b81526004016117629291906138ee565b600060405180830381600087803b15801561177c57600080fd5b505af1158015611790573d6000803e3d6000fd5b5050505050565b60076020528060005260406000206000915054906101000a900460ff1681565b60006006600083815260200190815260200160002060010160009054906101000a900473ffffffffffffffffffffffffffffffffffffffff169050919050565b6000600560008473ffffffffffffffffffffffffffffffffffffffff1673ffffffffffffffffffffffffffffffffffffffff16815260200190815260200160002060008373ffffffffffffffffffffffffffffffffffffffff1673ffffffffffffffffffffffffffffffffffffffff16815260200190815260200160002060009054906101000a900460ff16905092915050565b6000600660008381526020019081526020016000206040518060a0016040529081600082015481526020016001820160009054906101000a900473ffffffffffffffffffffffffffffffffffffffff1673ffffffffffffffffffffffffffffffffffffffff1673ffffffffffffffffffffffffffffffffffffffff168152602001600282015481526020016003820160009054906101000a900460ff1615151515815260200160048201548152505090508060600151611980576040517f08c379a000000000000000000000000000000000000000000000000000000000815260040161197790613963565b60405180910390fd5b8060800151600b60009054906101000a900473ffffffffffffffffffffffffffffffffffffffff1673ffffffffffffffffffffffffffffffffffffffff166370a08231336040518263ffffffff1660e01b81526004016119e09190612e33565b602060405180830381865afa1580156119fd573d6000803e3d6000fd5b505050506040513d601f19601f82011682018060405250810190611a219190613533565b1015611a62576040517f08c379a0000000000000000000000000000000000000000000000000000000008152600401611a59906139cf565b60405180910390fd5b600081608001516064600a54612710856040015142611a81919061363d565b611a8b91906136a0565b611a9591906136d1565b611a9f91906136a0565b611aa991906136d1565b9050600b60009054906101000a900473ffffffffffffffffffffffffffffffffffffffff1673ffffffffffffffffffffffffffffffffffffffff166323b872dd338460200151848660800151611aff919061363d565b6040518463ffffffff1660e01b8152600401611b1d939291906139ef565b6020604051808303816000875af1158015611b3c573d6000803e3d6000fd5b505050506040513d601f19601f82011682018060405250810190611b609190613a3b565b50600b60009054906101000a900473ffffffffffffffffffffffffffffffffffffffff1673ffffffffffffffffffffffffffffffffffffffff166323b872dd33600860009054906101000a900473ffffffffffffffffffffffffffffffffffffffff16846040518463ffffffff1660e01b8152600401611be2939291906139ef565b6020604051808303816000875af1158015611c01573d6000803e3d6000fd5b505050506040513d601f19601f82011682018060405250810190611c259190613a3b565b50611c3582602001513385612580565b60006006600085815260200190815260200160002060030160006101000a81548160ff021916908315150217905550336006600085815260200190815260200160002060010160006101000a81548173ffffffffffffffffffffffffffffffffffffffff021916908373ffffffffffffffffffffffffffffffffffffffff160217905550600060066000858152602001908152602001600020600401819055507fb6e6b0aa920ed5fbb8dd058bbd321e9b2b8780062b0dd9bc84019b47706f73ab83836080015133604051611d0c9392919061377f565b60405180910390a1505050565b60007f01ffc9a7000000000000000000000000000000000000000000000000000000007bffffffffffffffffffffffffffffffffffffffffffffffffffffffff1916827bffffffffffffffffffffffffffffffffffffffffffffffffffffffff1916149050919050565b600080611d8f836126ed565b9050600073ffffffffffffffffffffffffffffffffffffffff168173ffffffffffffffffffffffffffffffffffffffff1603611e0257826040517f7e273289000000000000000000000000000000000000000000000000000000008152600401611df99190612ec9565b60405180910390fd5b80915050919050565b60006004600083815260200190815260200160002060009054906101000a900473ffffffffffffffffffffffffffffffffffffffff169050919050565b600033905090565b611e5d838383600161272a565b505050565b600080611e6e846126ed565b9050600073ffffffffffffffffffffffffffffffffffffffff168373ffffffffffffffffffffffffffffffffffffffff1614611eb057611eaf8184866128ef565b5b600073ffffffffffffffffffffffffffffffffffffffff168173ffffffffffffffffffffffffffffffffffffffff1614611f4157611ef260008560008061272a565b6001600360008373ffffffffffffffffffffffffffffffffffffffff1673ffffffffffffffffffffffffffffffffffffffff168152602001908152602001600020600082825403925050819055505b600073ffffffffffffffffffffffffffffffffffffffff168573ffffffffffffffffffffffffffffffffffffffff1614611fc4576001600360008773ffffffffffffffffffffffffffffffffffffffff1673ffffffffffffffffffffffffffffffffffffffff168152602001908152602001600020600082825401925050819055505b846002600086815260200190815260200160002060006101000a81548173ffffffffffffffffffffffffffffffffffffffff021916908373ffffffffffffffffffffffffffffffffffffffff160217905550838573ffffffffffffffffffffffffffffffffffffffff168273ffffffffffffffffffffffffffffffffffffffff167fddf252ad1be2c89b69c2b068fc378daa952ba7f163c4a11628f55a4df523b3ef60405160405180910390a4809150509392505050565b600073ffffffffffffffffffffffffffffffffffffffff168273ffffffffffffffffffffffffffffffffffffffff16036120ed57816040517f5b08ba180000000000000000000000000000000000000000000000000000000081526004016120e49190612e33565b60405180910390fd5b80600560008573ffffffffffffffffffffffffffffffffffffffff1673ffffffffffffffffffffffffffffffffffffffff16815260200190815260200160002060008473ffffffffffffffffffffffffffffffffffffffff1673ffffffffffffffffffffffffffffffffffffffff16815260200190815260200160002060006101000a81548160ff0219169083151502179055508173ffffffffffffffffffffffffffffffffffffffff168373ffffffffffffffffffffffffffffffffffffffff167f17307eab39ab6107e8899845ad3d59bd9653f200f220920489ca2b5937696c31836040516121de9190612cc2565b60405180910390a3505050565b60008373ffffffffffffffffffffffffffffffffffffffff163b111561239c578273ffffffffffffffffffffffffffffffffffffffff1663150b7a0261222f611e48565b8685856040518563ffffffff1660e01b81526004016122519493929190613abd565b6020604051808303816000875af192505050801561228d57506040513d601f19601f8201168201806040525081019061228a9190613b1e565b60015b612311573d80600081146122bd576040519150601f19603f3d011682016040523d82523d6000602084013e6122c2565b606091505b50600081510361230957836040517f64a0ae920000000000000000000000000000000000000000000000000000000081526004016123009190612e33565b60405180910390fd5b805181602001fd5b63150b7a0260e01b7bffffffffffffffffffffffffffffffffffffffffffffffffffffffff1916817bffffffffffffffffffffffffffffffffffffffffffffffffffffffff19161461239a57836040517f64a0ae920000000000000000000000000000000000000000000000000000000081526004016123919190612e33565b60405180910390fd5b505b50505050565b600073ffffffffffffffffffffffffffffffffffffffff168273ffffffffffffffffffffffffffffffffffffffff16036124145760006040517f64a0ae9200000000000000000000000000000000000000000000000000000000815260040161240b9190612e33565b60405180910390fd5b600061242283836000611e62565b9050600073ffffffffffffffffffffffffffffffffffffffff168173ffffffffffffffffffffffffffffffffffffffff16146124965760006040517f73c6ac6e00000000000000000000000000000000000000000000000000000000815260040161248d9190612e33565b60405180910390fd5b505050565b606060405180602001604052806000815250905090565b6060600060016124c1846129b3565b01905060008167ffffffffffffffff8111156124e0576124df6132d0565b5b6040519080825280601f01601f1916602001820160405280156125125781602001600182028036833780820191505090505b509050600082602001820190505b600115612575578080600190039150507f3031323334353637383961626364656600000000000000000000000000000000600a86061a8153600a858161256957612568613671565b5b04945060008503612520575b819350505050919050565b600073ffffffffffffffffffffffffffffffffffffffff168273ffffffffffffffffffffffffffffffffffffffff16036125f25760006040517f64a0ae920000000000000000000000000000000000000000000000000000000081526004016125e99190612e33565b60405180910390fd5b600061260083836000611e62565b9050600073ffffffffffffffffffffffffffffffffffffffff168173ffffffffffffffffffffffffffffffffffffffff160361267357816040517f7e27328900000000000000000000000000000000000000000000000000000000815260040161266a9190612ec9565b60405180910390fd5b8373ffffffffffffffffffffffffffffffffffffffff168173ffffffffffffffffffffffffffffffffffffffff16146126e7578382826040517f64283d7b0000000000000000000000000000000000000000000000000000000081526004016126de93929190613606565b60405180910390fd5b50505050565b60006002600083815260200190815260200160002060009054906101000a900473ffffffffffffffffffffffffffffffffffffffff169050919050565b80806127635750600073ffffffffffffffffffffffffffffffffffffffff168273ffffffffffffffffffffffffffffffffffffffff1614155b1561289757600061277384611d83565b9050600073ffffffffffffffffffffffffffffffffffffffff168373ffffffffffffffffffffffffffffffffffffffff16141580156127de57508273ffffffffffffffffffffffffffffffffffffffff168173ffffffffffffffffffffffffffffffffffffffff1614155b80156127f157506127ef81846117f7565b155b1561283357826040517fa9fbf51f00000000000000000000000000000000000000000000000000000000815260040161282a9190612e33565b60405180910390fd5b811561289557838573ffffffffffffffffffffffffffffffffffffffff168273ffffffffffffffffffffffffffffffffffffffff167f8c5be1e5ebec7d5bd14f71427d1e84f3dd0314c0f7b2291e5b200ac8c7c3b92560405160405180910390a45b505b836004600085815260200190815260200160002060006101000a81548173ffffffffffffffffffffffffffffffffffffffff021916908373ffffffffffffffffffffffffffffffffffffffff16021790555050505050565b6128fa838383612b06565b6129ae57600073ffffffffffffffffffffffffffffffffffffffff168373ffffffffffffffffffffffffffffffffffffffff160361296f57806040517f7e2732890000000000000000000000000000000000000000000000000000000081526004016129669190612ec9565b60405180910390fd5b81816040517f177e802f0000000000000000000000000000000000000000000000000000000081526004016129a59291906138ee565b60405180910390fd5b505050565b600080600090507a184f03e93ff9f4daa797ed6e38ed64bf6a1f0100000000000000008310612a11577a184f03e93ff9f4daa797ed6e38ed64bf6a1f0100000000000000008381612a0757612a06613671565b5b0492506040810190505b6d04ee2d6d415b85acef81000000008310612a4e576d04ee2d6d415b85acef81000000008381612a4457612a43613671565b5b0492506020810190505b662386f26fc100008310612a7d57662386f26fc100008381612a7357612a72613671565b5b0492506010810190505b6305f5e1008310612aa6576305f5e1008381612a9c57612a9b613671565b5b0492506008810190505b6127108310612acb576127108381612ac157612ac0613671565b5b0492506004810190505b60648310612aee5760648381612ae457612ae3613671565b5b0492506002810190505b600a8310612afd576001810190505b80915050919050565b60008073ffffffffffffffffffffffffffffffffffffffff168373ffffffffffffffffffffffffffffffffffffffff1614158015612bbe57508273ffffffffffffffffffffffffffffffffffffffff168473ffffffffffffffffffffffffffffffffffffffff161480612b7f5750612b7e84846117f7565b5b80612bbd57508273ffffffffffffffffffffffffffffffffffffffff16612ba583611e0b565b73ffffffffffffffffffffffffffffffffffffffff16145b5b90509392505050565b6040518060a0016040528060008152602001600073ffffffffffffffffffffffffffffffffffffffff16815260200160008152602001600015158152602001600081525090565b6000604051905090565b600080fd5b600080fd5b60007fffffffff0000000000000000000000000000000000000000000000000000000082169050919050565b612c5781612c22565b8114612c6257600080fd5b50565b600081359050612c7481612c4e565b92915050565b600060208284031215612c9057612c8f612c18565b5b6000612c9e84828501612c65565b91505092915050565b60008115159050919050565b612cbc81612ca7565b82525050565b6000602082019050612cd76000830184612cb3565b92915050565b600081519050919050565b600082825260208201905092915050565b60005b83811015612d17578082015181840152602081019050612cfc565b60008484015250505050565b6000601f19601f8301169050919050565b6000612d3f82612cdd565b612d498185612ce8565b9350612d59818560208601612cf9565b612d6281612d23565b840191505092915050565b60006020820190508181036000830152612d878184612d34565b905092915050565b6000819050919050565b612da281612d8f565b8114612dad57600080fd5b50565b600081359050612dbf81612d99565b92915050565b600060208284031215612ddb57612dda612c18565b5b6000612de984828501612db0565b91505092915050565b600073ffffffffffffffffffffffffffffffffffffffff82169050919050565b6000612e1d82612df2565b9050919050565b612e2d81612e12565b82525050565b6000602082019050612e486000830184612e24565b92915050565b612e5781612e12565b8114612e6257600080fd5b50565b600081359050612e7481612e4e565b92915050565b60008060408385031215612e9157612e90612c18565b5b6000612e9f85828601612e65565b9250506020612eb085828601612db0565b9150509250929050565b612ec381612d8f565b82525050565b6000602082019050612ede6000830184612eba565b92915050565b600081519050919050565b600082825260208201905092915050565b6000819050602082019050919050565b612f1981612d8f565b82525050565b612f2881612e12565b82525050565b612f3781612ca7565b82525050565b60a082016000820151612f536000850182612f10565b506020820151612f666020850182612f1f565b506040820151612f796040850182612f10565b506060820151612f8c6060850182612f2e565b506080820151612f9f6080850182612f10565b50505050565b6000612fb18383612f3d565b60a08301905092915050565b6000602082019050919050565b6000612fd582612ee4565b612fdf8185612eef565b9350612fea83612f00565b8060005b8381101561301b5781516130028882612fa5565b975061300d83612fbd565b925050600181019050612fee565b5085935050505092915050565b600060208201905081810360008301526130428184612fca565b905092915050565b60008060006060848603121561306357613062612c18565b5b600061307186828701612e65565b935050602061308286828701612e65565b925050604061309386828701612db0565b9150509250925092565b6000602082840312156130b3576130b2612c18565b5b60006130c184828501612e65565b91505092915050565b600080604083850312156130e1576130e0612c18565b5b60006130ef85828601612db0565b925050602061310085828601612db0565b9150509250929050565b6000819050919050565b600061312f61312a61312584612df2565b61310a565b612df2565b9050919050565b600061314182613114565b9050919050565b600061315382613136565b9050919050565b61316381613148565b82525050565b600060208201905061317e600083018461315a565b92915050565b61318d81612ca7565b811461319857600080fd5b50565b6000813590506131aa81613184565b92915050565b600080604083850312156131c7576131c6612c18565b5b60006131d585828601612e65565b92505060206131e68582860161319b565b9150509250929050565b60a0820160008201516132066000850182612f10565b5060208201516132196020850182612f1f565b50604082015161322c6040850182612f10565b50606082015161323f6060850182612f2e565b5060808201516132526080850182612f10565b50505050565b600060a08201905061326d60008301846131f0565b92915050565b600060a0820190506132886000830188612eba565b6132956020830187612e24565b6132a26040830186612eba565b6132af6060830185612cb3565b6132bc6080830184612eba565b9695505050505050565b600080fd5b600080fd5b7f4e487b7100000000000000000000000000000000000000000000000000000000600052604160045260246000fd5b61330882612d23565b810181811067ffffffffffffffff82111715613327576133266132d0565b5b80604052505050565b600061333a612c0e565b905061334682826132ff565b919050565b600067ffffffffffffffff821115613366576133656132d0565b5b61336f82612d23565b9050602081019050919050565b82818337600083830152505050565b600061339e6133998461334b565b613330565b9050828152602081018484840111156133ba576133b96132cb565b5b6133c584828561337c565b509392505050565b600082601f8301126133e2576133e16132c6565b5b81356133f284826020860161338b565b91505092915050565b6000806000806080858703121561341557613414612c18565b5b600061342387828801612e65565b945050602061343487828801612e65565b935050604061344587828801612db0565b925050606085013567ffffffffffffffff81111561346657613465612c1d565b5b613472878288016133cd565b91505092959194509250565b6000806040838503121561349557613494612c18565b5b60006134a385828601612e65565b92505060206134b485828601612e65565b9150509250929050565b7f4e487b7100000000000000000000000000000000000000000000000000000000600052602260045260246000fd5b6000600282049050600182168061350557607f821691505b602082108103613518576135176134be565b5b50919050565b60008151905061352d81612d99565b92915050565b60006020828403121561354957613548612c18565b5b60006135578482850161351e565b91505092915050565b7f4e487b7100000000000000000000000000000000000000000000000000000000600052601160045260246000fd5b600061359a82612d8f565b91507fffffffffffffffffffffffffffffffffffffffffffffffffffffffffffffffff82036135cc576135cb613560565b5b600182019050919050565b7f4e487b7100000000000000000000000000000000000000000000000000000000600052603260045260246000fd5b600060608201905061361b6000830186612e24565b6136286020830185612eba565b6136356040830184612e24565b949350505050565b600061364882612d8f565b915061365383612d8f565b925082820390508181111561366b5761366a613560565b5b92915050565b7f4e487b7100000000000000000000000000000000000000000000000000000000600052601260045260246000fd5b60006136ab82612d8f565b91506136b683612d8f565b9250826136c6576136c5613671565b5b828204905092915050565b60006136dc82612d8f565b91506136e783612d8f565b92508282026136f581612d8f565b9150828204841483151761370c5761370b613560565b5b5092915050565b7f416c726561647920666f722073616c6500000000000000000000000000000000600082015250565b6000613749601083612ce8565b915061375482613713565b602082019050919050565b600060208201905081810360008301526137788161373c565b9050919050565b60006060820190506137946000830186612eba565b6137a16020830185612eba565b6137ae6040830184612e24565b949350505050565b7f41697264726f7020616c726561647920636c61696d6564000000000000000000600082015250565b60006137ec601783612ce8565b91506137f7826137b6565b602082019050919050565b6000602082019050818103600083015261381b816137df565b9050919050565b600081905092915050565b600061383882612cdd565b6138428185613822565b9350613852818560208601612cf9565b80840191505092915050565b600061386a828561382d565b9150613876828461382d565b91508190509392505050565b7f4574686572203e20300000000000000000000000000000000000000000000000600082015250565b60006138b8600983612ce8565b91506138c382613882565b602082019050919050565b600060208201905081810360008301526138e7816138ab565b9050919050565b60006040820190506139036000830185612e24565b6139106020830184612eba565b9392505050565b7f486f757365206973206e6f7420666f722073616c650000000000000000000000600082015250565b600061394d601583612ce8565b915061395882613917565b602082019050919050565b6000602082019050818103600083015261397c81613940565b9050919050565b7f496e73756666696369656e74207061796d656e74000000000000000000000000600082015250565b60006139b9601483612ce8565b91506139c482613983565b602082019050919050565b600060208201905081810360008301526139e8816139ac565b9050919050565b6000606082019050613a046000830186612e24565b613a116020830185612e24565b613a1e6040830184612eba565b949350505050565b600081519050613a3581613184565b92915050565b600060208284031215613a5157613a50612c18565b5b6000613a5f84828501613a26565b91505092915050565b600081519050919050565b600082825260208201905092915050565b6000613a8f82613a68565b613a998185613a73565b9350613aa9818560208601612cf9565b613ab281612d23565b840191505092915050565b6000608082019050613ad26000830187612e24565b613adf6020830186612e24565b613aec6040830185612eba565b8181036060830152613afe8184613a84565b905095945050505050565b600081519050613b1881612c4e565b92915050565b600060208284031215613b3457613b33612c18565b5b6000613b4284828501613b09565b9150509291505056fea26469706673582212204472ea5af1567e6c335b12722d64b9d7d7b69221982d961d32456e4556e70a2964736f6c6343000814003360806040523480156200001157600080fd5b50604051620016383803806200163883398181016040528101906200003791906200023b565b818181600390816200004a91906200050b565b5080600490816200005c91906200050b565b50505033600560006101000a81548173ffffffffffffffffffffffffffffffffffffffff021916908373ffffffffffffffffffffffffffffffffffffffff1602179055505050620005f2565b6000604051905090565b600080fd5b600080fd5b600080fd5b600080fd5b6000601f19601f8301169050919050565b7f4e487b7100000000000000000000000000000000000000000000000000000000600052604160045260246000fd5b6200011182620000c6565b810181811067ffffffffffffffff82111715620001335762000132620000d7565b5b80604052505050565b600062000148620000a8565b905062000156828262000106565b919050565b600067ffffffffffffffff821115620001795762000178620000d7565b5b6200018482620000c6565b9050602081019050919050565b60005b83811015620001b157808201518184015260208101905062000194565b60008484015250505050565b6000620001d4620001ce846200015b565b6200013c565b905082815260208101848484011115620001f357620001f2620000c1565b5b6200020084828562000191565b509392505050565b600082601f83011262000220576200021f620000bc565b5b815162000232848260208601620001bd565b91505092915050565b60008060408385031215620002555762000254620000b2565b5b600083015167ffffffffffffffff811115620002765762000275620000b7565b5b620002848582860162000208565b925050602083015167ffffffffffffffff811115620002a857620002a7620000b7565b5b620002b68582860162000208565b9150509250929050565b600081519050919050565b7f4e487b7100000000000000000000000000000000000000000000000000000000600052602260045260246000fd5b600060028204905060018216806200031357607f821691505b602082108103620003295762000328620002cb565b5b50919050565b60008190508160005260206000209050919050565b60006020601f8301049050919050565b600082821b905092915050565b600060088302620003937fffffffffffffffffffffffffffffffffffffffffffffffffffffffffffffffff8262000354565b6200039f868362000354565b95508019841693508086168417925050509392505050565b6000819050919050565b6000819050919050565b6000620003ec620003e6620003e084620003b7565b620003c1565b620003b7565b9050919050565b6000819050919050565b6200040883620003cb565b620004206200041782620003f3565b84845462000361565b825550505050565b600090565b6200043762000428565b62000444818484620003fd565b505050565b5b818110156200046c57620004606000826200042d565b6001810190506200044a565b5050565b601f821115620004bb5762000485816200032f565b620004908462000344565b81016020851015620004a0578190505b620004b8620004af8562000344565b83018262000449565b50505b505050565b600082821c905092915050565b6000620004e060001984600802620004c0565b1980831691505092915050565b6000620004fb8383620004cd565b9150826002028217905092915050565b6200051682620002c0565b67ffffffffffffffff811115620005325762000531620000d7565b5b6200053e8254620002fa565b6200054b82828562000470565b600060209050601f8311600181146200058357600084156200056e578287015190505b6200057a8582620004ed565b865550620005ea565b601f19841662000593866200032f565b60005b82811015620005bd5784890151825560018201915060208501945060208101905062000596565b86831015620005dd5784890151620005d9601f891682620004cd565b8355505b6001600288020188555050505b505050505050565b61103680620006026000396000f3fe608060405234801561001057600080fd5b50600436106100a95760003560e01c806340c10f191161007157806340c10f191461016857806370a08231146101845780638da5cb5b146101b457806395d89b41146101d2578063a9059cbb146101f0578063dd62ed3e14610220576100a9565b806306fdde03146100ae578063095ea7b3146100cc57806318160ddd146100fc57806323b872dd1461011a578063313ce5671461014a575b600080fd5b6100b6610250565b6040516100c39190610c1e565b60405180910390f35b6100e660048036038101906100e19190610cd9565b6102e2565b6040516100f39190610d34565b60405180910390f35b610104610305565b6040516101119190610d5e565b60405180910390f35b610134600480360381019061012f9190610d79565b61030f565b6040516101419190610d34565b60405180910390f35b61015261033e565b60405161015f9190610de8565b60405180910390f35b610182600480360381019061017d9190610cd9565b610347565b005b61019e60048036038101906101999190610e03565b6103c4565b6040516101ab9190610d5e565b60405180910390f35b6101bc61040c565b6040516101c99190610e3f565b60405180910390f35b6101da610432565b6040516101e79190610c1e565b60405180910390f35b61020a60048036038101906102059190610cd9565b6104c4565b6040516102179190610d34565b60405180910390f35b61023a60048036038101906102359190610e5a565b6104e7565b6040516102479190610d5e565b60405180910390f35b60606003805461025f90610ec9565b80601f016020809104026020016040519081016040528092919081815260200182805461028b90610ec9565b80156102d85780601f106102ad576101008083540402835291602001916102d8565b820191906000526020600020905b8154815290600101906020018083116102bb57829003601f168201915b5050505050905090565b6000806102ed61056e565b90506102fa818585610576565b600191505092915050565b6000600254905090565b60008061031a61056e565b9050610327858285610588565b61033285858561061c565b60019150509392505050565b60006012905090565b600073ffffffffffffffffffffffffffffffffffffffff168273ffffffffffffffffffffffffffffffffffffffff16036103b6576040517f08c379a00000000000000000000000000000000000000000000000000000000081526004016103ad90610f46565b60405180910390fd5b6103c08282610710565b5050565b60008060008373ffffffffffffffffffffffffffffffffffffffff1673ffffffffffffffffffffffffffffffffffffffff168152602001908152602001600020549050919050565b600560009054906101000a900473ffffffffffffffffffffffffffffffffffffffff1681565b60606004805461044190610ec9565b80601f016020809104026020016040519081016040528092919081815260200182805461046d90610ec9565b80156104ba5780601f1061048f576101008083540402835291602001916104ba565b820191906000526020600020905b81548152906001019060200180831161049d57829003601f168201915b5050505050905090565b6000806104cf61056e565b90506104dc81858561061c565b600191505092915050565b6000600160008473ffffffffffffffffffffffffffffffffffffffff1673ffffffffffffffffffffffffffffffffffffffff16815260200190815260200160002060008373ffffffffffffffffffffffffffffffffffffffff1673ffffffffffffffffffffffffffffffffffffffff16815260200190815260200160002054905092915050565b600033905090565b6105838383836001610792565b505050565b600061059484846104e7565b90507fffffffffffffffffffffffffffffffffffffffffffffffffffffffffffffffff81146106165781811015610606578281836040517ffb8f41b20000000000000000000000000000000000000000000000000000000081526004016105fd93929190610f66565b60405180910390fd5b61061584848484036000610792565b5b50505050565b600073ffffffffffffffffffffffffffffffffffffffff168373ffffffffffffffffffffffffffffffffffffffff160361068e5760006040517f96c6fd1e0000000000000000000000000000000000000000000000000000000081526004016106859190610e3f565b60405180910390fd5b600073ffffffffffffffffffffffffffffffffffffffff168273ffffffffffffffffffffffffffffffffffffffff16036107005760006040517fec442f050000000000000000000000000000000000000000000000000000000081526004016106f79190610e3f565b60405180910390fd5b61070b838383610969565b505050565b600073ffffffffffffffffffffffffffffffffffffffff168273ffffffffffffffffffffffffffffffffffffffff16036107825760006040517fec442f050000000000000000000000000000000000000000000000000000000081526004016107799190610e3f565b60405180910390fd5b61078e60008383610969565b5050565b600073ffffffffffffffffffffffffffffffffffffffff168473ffffffffffffffffffffffffffffffffffffffff16036108045760006040517fe602df050000000000000000000000000000000000000000000000000000000081526004016107fb9190610e3f565b60405180910390fd5b600073ffffffffffffffffffffffffffffffffffffffff168373ffffffffffffffffffffffffffffffffffffffff16036108765760006040517f94280d6200000000000000000000000000000000000000000000000000000000815260040161086d9190610e3f565b60405180910390fd5b81600160008673ffffffffffffffffffffffffffffffffffffffff1673ffffffffffffffffffffffffffffffffffffffff16815260200190815260200160002060008573ffffffffffffffffffffffffffffffffffffffff1673ffffffffffffffffffffffffffffffffffffffff168152602001908152602001600020819055508015610963578273ffffffffffffffffffffffffffffffffffffffff168473ffffffffffffffffffffffffffffffffffffffff167f8c5be1e5ebec7d5bd14f71427d1e84f3dd0314c0f7b2291e5b200ac8c7c3b9258460405161095a9190610d5e565b60405180910390a35b50505050565b600073ffffffffffffffffffffffffffffffffffffffff168373ffffffffffffffffffffffffffffffffffffffff16036109bb5780600260008282546109af9190610fcc565b92505081905550610a8e565b60008060008573ffffffffffffffffffffffffffffffffffffffff1673ffffffffffffffffffffffffffffffffffffffff16815260200190815260200160002054905081811015610a47578381836040517fe450d38c000000000000000000000000000000000000000000000000000000008152600401610a3e93929190610f66565b60405180910390fd5b8181036000808673ffffffffffffffffffffffffffffffffffffffff1673ffffffffffffffffffffffffffffffffffffffff16815260200190815260200160002081905550505b600073ffffffffffffffffffffffffffffffffffffffff168273ffffffffffffffffffffffffffffffffffffffff1603610ad75780600260008282540392505081905550610b24565b806000808473ffffffffffffffffffffffffffffffffffffffff1673ffffffffffffffffffffffffffffffffffffffff168152602001908152602001600020600082825401925050819055505b8173ffffffffffffffffffffffffffffffffffffffff168373ffffffffffffffffffffffffffffffffffffffff167fddf252ad1be2c89b69c2b068fc378daa952ba7f163c4a11628f55a4df523b3ef83604051610b819190610d5e565b60405180910390a3505050565b600081519050919050565b600082825260208201905092915050565b60005b83811015610bc8578082015181840152602081019050610bad565b60008484015250505050565b6000601f19601f8301169050919050565b6000610bf082610b8e565b610bfa8185610b99565b9350610c0a818560208601610baa565b610c1381610bd4565b840191505092915050565b60006020820190508181036000830152610c388184610be5565b905092915050565b600080fd5b600073ffffffffffffffffffffffffffffffffffffffff82169050919050565b6000610c7082610c45565b9050919050565b610c8081610c65565b8114610c8b57600080fd5b50565b600081359050610c9d81610c77565b92915050565b6000819050919050565b610cb681610ca3565b8114610cc157600080fd5b50565b600081359050610cd381610cad565b92915050565b60008060408385031215610cf057610cef610c40565b5b6000610cfe85828601610c8e565b9250506020610d0f85828601610cc4565b9150509250929050565b60008115159050919050565b610d2e81610d19565b82525050565b6000602082019050610d496000830184610d25565b92915050565b610d5881610ca3565b82525050565b6000602082019050610d736000830184610d4f565b92915050565b600080600060608486031215610d9257610d91610c40565b5b6000610da086828701610c8e565b9350506020610db186828701610c8e565b9250506040610dc286828701610cc4565b9150509250925092565b600060ff82169050919050565b610de281610dcc565b82525050565b6000602082019050610dfd6000830184610dd9565b92915050565b600060208284031215610e1957610e18610c40565b5b6000610e2784828501610c8e565b91505092915050565b610e3981610c65565b82525050565b6000602082019050610e546000830184610e30565b92915050565b60008060408385031215610e7157610e70610c40565b5b6000610e7f85828601610c8e565b9250506020610e9085828601610c8e565b9150509250929050565b7f4e487b7100000000000000000000000000000000000000000000000000000000600052602260045260246000fd5b60006002820490506001821680610ee157607f821691505b602082108103610ef457610ef3610e9a565b5b50919050565b7f43616e2774206d696e7420746f207a65726f0000000000000000000000000000600082015250565b6000610f30601283610b99565b9150610f3b82610efa565b602082019050919050565b60006020820190508181036000830152610f5f81610f23565b9050919050565b6000606082019050610f7b6000830186610e30565b610f886020830185610d4f565b610f956040830184610d4f565b949350505050565b7f4e487b7100000000000000000000000000000000000000000000000000000000600052601160045260246000fd5b6000610fd782610ca3565b9150610fe283610ca3565b9250828201905080821115610ffa57610ff9610f9d565b5b9291505056fea2646970667358221220a8362acdd66f03f45b2a3278b8b759dd322a3613a6bc4a7434b66c1dada3a2d864736f6c63430008140033",
  "linkReferences": {},
  "deployedLinkReferences": {}
}